{
    "000/my_chain_id_test/Paris/tx_type_0": {
        "_info": {
            "hash": "0xfb3bfb73acf7ccc1592d06a570cf2e95eec18c6335bd095e425e814c8bb3433d",
            "fixture_format": "blockchain_test_engine"
        },
        "network": "Paris",
        "lastblockhash": "0xc24d78b58b7ccc57effaee66f54e3c6c2c79de399568432ed1aa34c66475c2ee",
        "genesisBlockHeader": {
            "parentHash": "0x0000000000000000000000000000000000000000000000000000000000000000",
            "uncleHash": "0x1dcc4de8dec75d7aab85b567b6ccd41ad312451b948a7413f0a142fd40d49347",
            "coinbase": "0x0000000000000000000000000000000000000000",
            "stateRoot": "0x03727f261910c4f666532f9374d9dadaa72a69c2d4171955caa71e7a98adc447",
            "transactionsTrie": "0x56e81f171bcc55a6ff8345e692c0f86e5b48e01b996cadc001622fb5e363b421",
            "receiptTrie": "0x56e81f171bcc55a6ff8345e692c0f86e5b48e01b996cadc001622fb5e363b421",
            "bloom": "0x00000000000000000000000000000000000000000000000000000000000000000000000000000000000000000000000000000000000000000000000000000000000000000000000000000000000000000000000000000000000000000000000000000000000000000000000000000000000000000000000000000000000000000000000000000000000000000000000000000000000000000000000000000000000000000000000000000000000000000000000000000000000000000000000000000000000000000000000000000000000000000000000000000000000000000000000000000000000000000000000000000000000000000000000000000000",
            "difficulty": "0x00",
            "number": "0x00",
            "gasLimit": "0x02540be400",
            "gasUsed": "0x00",
            "timestamp": "0x00",
            "extraData": "0x00",
            "mixHash": "0x0000000000000000000000000000000000000000000000000000000000000000",
            "nonce": "0x0000000000000000",
            "baseFeePerGas": "0x07",
            "hash": "0xd1a7a221b753e7e951359b0785c57d498709224b299b0a925cefd5b4076c56dd"
        },
        "engineNewPayloads": [
            {
                "params": [
                    {
                        "parentHash": "0xd1a7a221b753e7e951359b0785c57d498709224b299b0a925cefd5b4076c56dd",
                        "feeRecipient": "0x2adc25665018aa1fe0e6bc666dac8fc2697ff9ba",
                        "stateRoot": "0xaf03c39e7a64dc7072c098673612e0e0aa75419aec9bf8a454da0332fed3ae09",
                        "receiptsRoot": "0x4b93b3c0006d672c5dfd4094132d3e8acd463e7cb018f86df29136c9a399d0b6",
                        "logsBloom": "0x04000000000000000000000000000000000000000000000000000000000000000000000000000000000000000000000000000000000200000000000000000000000000000000000000080000000000000000000000000000000000000000000000000000000000000000000000000000000000000000000000000000000000000000000000000000000000000000000000000000000000000000000000000000000000000000000000000100000000004000000000000000000000000000000000000000000000000000000000000000000000000000000000000000000000000000000000000000000000000000000000000000008000000000000000000000",
                        "blockNumber": "0x1",
                        "gasLimit": "0x2540be400",
                        "gasUsed": "0xab63",
                        "timestamp": "0x3e8",
                        "extraData": "0x00",
                        "prevRandao": "0x0000000000000000000000000000000000000000000000000000000000000000",
                        "baseFeePerGas": "0x7",
                        "blockHash": "0xc24d78b58b7ccc57effaee66f54e3c6c2c79de399568432ed1aa34c66475c2ee",
                        "transactions": [
                            "0xf861800a8405f5e10094100000000000000000000000000000000000000080801ba07e09e26678ed4fac08a249ebe8ed680bf9051a5e14ad223e4b2b9d26e0208f37a05f6e3f188e3e6eab7d7d3b6568f5eac7d687b08d307d3154ccd8c87b4630509b"
                        ]
                    }
                ],
                "newPayloadVersion": "1",
                "forkchoiceUpdatedVersion": "1"
            }
        ],
        "pre": {
            "0x1000000000000000000000000000000000000000": {
                "nonce": "0x00",
                "balance": "0x00",
                "code": "0x46600155600260016000a100",
                "storage": {}
            },
            "0xa94f5374fce5edbc8e2a8697c15331677e6ebf0b": {
                "nonce": "0x00",
                "balance": "0x3635c9adc5dea00000",
                "code": "0x",
                "storage": {}
            }
        },
        "postState": {
            "0x1000000000000000000000000000000000000000": {
                "nonce": "0x00",
                "balance": "0x00",
                "code": "0x46600155600260016000a100",
                "storage": {
                    "0x01": "0x01"
                }
            },
            "0x2adc25665018aa1fe0e6bc666dac8fc2697ff9ba": {
                "nonce": "0x00",
                "balance": "0x020229",
                "code": "0x",
                "storage": {}
            },
            "0xa94f5374fce5edbc8e2a8697c15331677e6ebf0b": {
                "nonce": "0x01",
                "balance": "0x3635c9adc5de994e22",
                "code": "0x",
                "storage": {}
            }
        },
        "config": {
            "network": "Paris",
            "chainid": "0x01"
        }
    }
}
